:100000000C94C4000C94EC000C94EC000C94EC00E8
:100010000C94EC000C94EC000C94EC000C94EC00B0
:100020000C94EC000C94EC000C947E040C94ED0405
:100030000C94EC000C94EC000C94EC000C94EC0090
:100040000C94EC000C94EC000C94EC000C94EC0080
:100050000C94EC000C94EC000C94EC000C94340424
:100060000C94EC000C94EC000C94EC000C94EC0060
:100070000C94EC000C94EC000C94EC000C94EC0050
:100080000C94EC000C94EC000C94EC000C94EC0040
:100090000C94EC000C94EC000C94EC000C94EC0030
:1000A0000C94EC000C94EC000C94EC00080B000297
:1000B0000202000009040000010202000005240001
:1000C0001001052401010104240206052406000193
:1000D0000705810310004009040100020A00000026
:1000E00007050202400000070583024000000403E8
:1000F000090412010002EF0201404F1B06920001A9
:1001000001020301537061726B46756E005370619A
:10011000726B46756E2050726F204D6963726F006E
:10012000070605040100080A0B0C0D090000000079
:10013000250028002B002E003100000000002400C4
:1001400027002A002D0030000404040404030405E1
:100150000202020204030202020206060606060664
:10016000040402020204040408020110408040104A
:1001700020408040800802040180402010020110CD
:10018000801020404020180811241FBECFEFDAE075
:10019000DEBFCDBF11E0A0E0B1E0EEEAF0E102C0C9
:1001A00005900D92A034B107D9F721E0A0E4B1E0A9
:1001B00001C01D92AF3AB207E1F710E0C4ECD0E005
:1001C00004C02197FE010E944F08C33CD107C9F724
:1001D0000E941F070C9455080C940000CF93DF93E6
:1001E00090E0FC01E959FE4F2491885B9E4FFC0191
:1001F00084918823C1F090E0880F991FFC01E65C90
:10020000FE4FC591D491FC01E45DFE4FA591B491E0
:100210009FB7F8948881E22FE0958E2388838C9194
:10022000E823EC939FBFDF91CF910895FC0180916B
:100230005E01882311F13FB7F89482E08093E900D2
:100240002091F200822F90E01816190614F481E034
:1002500090E0882339F0289844E640935D0140916E
:10026000F1004083222339F02091F200211103C0D4
:100270002BE62093E8003FBF08958FEF9FEF08958E
:100280002FB7F89483E08093E9009091E800892FDC
:10029000807295FF04C09091F20080E4891B2FBF0B
:1002A00008958091550181110DC082E08093510124
:1002B00084E080935201109254011092530181E026
:1002C0008093550181E591E008958251E82FF0E097
:1002D000E05EFE4FE49190917B008E2F880F880F97
:1002E00080729F7D892B80937B00E770E064E093B0
:1002F0007C0080917A00806480937A0080917A00FB
:1003000086FDFCCF809178009091790008953FB7E9
:10031000F89480914D0190914E01A0914F01B091C0
:10032000500126B5A89B05C02F3F19F00196A11DCD
:10033000B11D3FBFBA2FA92F982F8827BC01CD012F
:10034000620F711D811D911D42E0660F771F881F8E
:10035000991F4A95D1F708958F929F92AF92BF92BD
:10036000CF92DF92EF92FF924B015C010E948701D6
:100370006B017C010E9487016C197D098E099F0920
:10038000683E734081059105A8F321E0821A910827
:10039000A108B10888EEC80E83E0D81EE11CF11C4C
:1003A00081149104A104B10429F7FF90EF90DF902C
:1003B000CF90BF90AF909F908F9008954091420151
:1003C0005091430120914001309141014217530760
:1003D000B4F49091E8009570E1F39091E80092FDFB
:1003E00019C08093F10080914201909143010196E0
:1003F0008F739927892B19F48EEF8093E8008091F1
:1004000042019091430101969093430180934201F0
:1004100081E0089580E00895EF92FF920F931F937B
:10042000CF93DF93F82E192FE62E042F81E0860F4D
:10043000880F0E94DE0183E00E94DE01CF2DD12FC4
:10044000EC0EFD2EF11CCE15DF05B9F007FF13C031
:10045000FE0184910E94DE01182F80E00E94DE01DF
:10046000812321968111EFCFDF91CF911F910F91C1
:10047000FF90EF9008958881EDCF81E0F5CFDF9276
:10048000EF92FF920F931F93CF93DF93D82E8A01A1
:10049000EB017B01E40EF51ECE15DF0559F0D7FE0A
:1004A00012C0FE0184910E94DE0121968111F4CFD9
:1004B0000FEF1FEFC801DF91CF911F910F91FF90B8
:1004C000EF90DF9008958881EECF0F931F93CF9325
:1004D000DF931F92CDB7DEB782E0898342E450E01C
:1004E0006CEA70E080E80E943F020E945101DC014A
:1004F00012960D911C910115110589F0D801ED910D
:10050000FC910280F381E02DBE016F5F7F4FC80137
:10051000099597FD04C0F80100851185ECCF89810C
:100520000F90DF91CF911F910F910895615030F09E
:100530002091F100FC0120830196F8CF289884E6F1
:1005400080935D0108958F929F92AF92BF92CF9258
:10055000DF92EF92FF920F931F93CF93DF936C0183
:100560007B018A0180910B01882309F45CC0809192
:100570005E01882309F457C08091460180FF05C0C1
:100580008091E00082608093E000E801B12C8AEF66
:10059000A82E93E0892E2AE3922E209711F4BB20F7
:1005A000D9F10E94400181110AC0AA94AA20D9F170
:1005B00061E070E080E090E00E94AC01EECF8C172B
:1005C0001D0611F00CF08C2F9FB7F8948092E90073
:1005D0002091E80025FD02C09FBFDFCF282F30E02B
:1005E000C21BD30BF701815020F041914093F100E1
:1005F000FACFE20EF31EBB2021F09092E800B12C5E
:10060000EBCF8091E80085FDE7CF9092E800BB2416
:10061000B394209709F3F3CF5D9884E68093450166
:10062000101611063CF081E090E0F601938382837E
:1006300010E000E0C801DF91CF911F910F91FF9072
:10064000EF90DF90CF90BF90AF909F908F900895E4
:10065000CF93DF931F92CDB7DEB76983DC01ED91B5
:10066000FC910280F381E02D41E050E0BE016F5F1C
:100670007F4F09950F90DF91CF910895682F8FE5F7
:1006800091E00C94280383E08093E9008091F200CC
:10069000882319F08AE38093E80008950E944001BE
:1006A00090E00895CF93DF931F92CDB7DEB7FC01A2
:1006B0008485958597FD08C02FEF3FEF3587248708
:1006C0000F90DF91CF910895CE0101960E941601FF
:1006D000019719F4898190E0F3CF8FEF9FEFF0CF6E
:1006E0000F931F93CF93DF931F92CDB7DEB78C018B
:1006F000FC018485958597FF0BC0CE0101960E9471
:100700001601019771F4898190E0F801958784873B
:10071000F801848595850F90DF91CF911F910F91FE
:1007200008958FEF9FEFF1CFFC018485958597FDAC
:100730000BC09FB7F89482E08093E9008091F200AB
:100740009FBF90E0019608959FB7F89482E0809350
:10075000E9008091F2009FBF90E00895FC010190B4
:100760000020E9F73197AF01481B590BBC018FE519
:1007700091E00C94A3028F929F92AF92BF92CF927E
:10078000DF92EF92FF920F931F93CF93DF93CDB73A
:10079000DEB7A1970FB6F894DEBF0FBECDBF6B01D9
:1007A0007C01F7FE3FC08DE20E943E038C012227B0
:1007B0003327A9012C193D094E095F0919A2CE0161
:1007C00081967C019AE0892E912CA12CB12CCA0132
:1007D000B901A50194010E942D08605DF7016293A3
:1007E0007F01211531054105510589F790E080E031
:1007F000309719F0CF010E94AE03800F911FA19690
:100800000FB6F894DEBF0FBECDBFDF91CF911F9121
:100810000F91FF90EF90DF90CF90BF90AF909F909F
:100820008F900895AC019B0119A28E010F5D1F4F9F
:100830008AE0C82ED12CE12CF12CCA01B901A70104
:1008400096010E942D08605DF80162938F012115C9
:1008500031054105510589F790E080E0309779F244
:10086000CF010E94AE03CBCF1F920F920FB60F9213
:1008700011242F933F938F939F93AF93BF938091B6
:10088000490190914A01A0914B01B0914C013091E6
:10089000480123E0230F2D3758F50196A11DB11D06
:1008A000209348018093490190934A01A0934B0102
:1008B000B0934C0180914D0190914E01A0914F0158
:1008C000B09150010196A11DB11D80934D019093EF
:1008D0004E01A0934F01B0935001BF91AF919F91F2
:1008E0008F913F912F910F900FBE0F901F901895F1
:1008F00026E8230F0296A11DB11DD2CF1F920F92A1
:100900000FB60F9211248F939F938091E1009091E5
:10091000E100937F9093E10083FF0FC01092E90004
:1009200091E09093EB001092EC0092E39093ED0035
:1009300010925E0198E09093F00082FF22C093E055
:100940009093E9009091F200992319F09AE3909323
:10095000E80090914501992341F090914501915013
:1009600090934501911101C05D9A90915D01992389
:1009700041F090915D01915090935D01911101C002
:10098000289A84FF18C08091E2008E7E8160809357
:10099000E2008091E1008F7E8093E100809146012A
:1009A0008E7E8061809346019F918F910F900FBE44
:1009B0000F901F90189580FFF7CF8091E2008E7EF8
:1009C00080618093E2008091E1008E7E8093E1005F
:1009D000809146018E7E8160E5CF1F920F920FB607
:1009E0000F921124CF92DF92EF92FF920F931F93F9
:1009F0002F933F934F935F936F937F938F939F9327
:100A0000AF93BF93EF93FF93CF93DF93CDB7DEB751
:100A10006C97DEBFCDBF1092E9008091E80083FFA4
:100A200025C068E0CE0145960E94960282EF809331
:100A3000E8008D8987FF39C09091E80090FFFCCFD6
:100A4000982F907609F034C19E894F89588D2F894F
:100A5000F88C911131C0803861F580914701809305
:100A6000F1001092F1008EEF8093E8006C960FB6C3
:100A7000F894DEBF0FBECDBFDF91CF91FF91EF9114
:100A8000BF91AF919F918F917F916F915F914F91A6
:100A90003F912F911F910F91FF90EF90DF90CF909A
:100AA0000F900FBE0F901F9018959EEF9093E80047
:100AB000C7CF1092F100D5CF913059F48111D3CF27
:100AC0004130510581F6809147018D7F8093470128
:100AD000CACF933049F48111C6CF4130510519F680
:100AE000809147018260F2CF953041F48091E80017
:100AF00080FFFCCF20682093E300B5CF963009F04B
:100B0000A9C00B8D1C8D22E01092E90010924301C8
:100B100010924201F2122EC0109241011092400137
:100B20000E9465021F8299E09983FA8291E09E8378
:100B300090EA98879AEF998720914201309143017A
:100B4000275F3F4F3C832B838D831092E9001092E7
:100B5000430110924201109341010093400149E08A
:100B600050E0BE016F5F7F4F80E00E943F020E9415
:100B7000650279CF10934101009340010E94510119
:100B8000DC0112960D911C910115110509F451C15A
:100B9000D801ED91FC910480F581E02DBE016B5EE2
:100BA0007F4FC8010995009709F03EC1F801008503
:100BB0001185EACFF3E0FF120EC08F89882309F474
:100BC00040C0823061F440E862E18DE091E00E9433
:100BD0000C02811148CF81E28093EB0047CF813036
:100BE00029F440E868E084E091E0F1CF833099F7A0
:100BF0000E945101DC011296ED90FC908E010F5F76
:100C00001F4F6801E114F10479F0D701ED91FC91D7
:100C10000680F781E02DB801C7010995080F111D65
:100C2000F701E084F184EECFD8011C92F601019027
:100C30000020E9F73197BF016C197D0940E0C6013A
:100C4000C6CF6EEE70E0FB01449150E080E80E9458
:100C50003F0209CF973009F4BECF983021F481E0EC
:100C60008093F10000CF993009F0FDCE837009F038
:100C7000B2CFEFE1F1E081E031E096E32191222370
:100C800071F08093E9003093EB00DF0111972C9114
:100C90002093EC009093ED008F5F873079F78EE71B
:100CA0008093EA001092EA008F8980935E01DBCE88
:100CB0008B8D9C8D1092E90010924301109242019D
:100CC0009093410180934001898D811192C08E895A
:100CD0009D89913A49F4813209F07DCF47E050E097
:100CE00064E071E080E0B3CF913209F074CF8332D9
:100CF00069F48F89988DB0E0A0E080930001909313
:100D00000101A0930201B0930301ADCE803269F4DA
:100D10008091E80082FFFCCF67E084E091E00E94D0
:100D200096028BEF8093E8009ECE823209F09BCE34
:100D30008F8980930B01EEEFFFE7859194918B3FB4
:100D40009C4D51F1E0E0F8E08091040190910501A3
:100D5000A0910601B0910701803B9440A105B10527
:100D6000F1F480910B0180FD1AC0EE3F8AE0F80794
:100D700089F587E797E7918380838091600080936E
:100D8000440188E19BE00FB6F894A8958093600039
:100D90000FBE9093600067CEEEEFFAE0D5CF808172
:100DA00091818737974709F05ECEA89580916000C2
:100DB0008861809360008091440180936000EE3FE1
:100DC0002AE0F20789F08091FE0A9091FF0A918350
:100DD000808349CE808191818737980751F2909323
:100DE000FF0A8093FE0AC5CF1092FF0A1092FE0AF6
:100DF0003ACE0E945101DC0112960D911C91011511
:100E0000110509F4E8CED801ED91FC910190F08133
:100E1000E02DBE016B5E7F4FC8010995811123CE85
:100E2000F80100851185EBCF181619060CF41BCEBE
:100E3000D2CEF1E0FF12BECE62EF70E004CF789424
:100E400084B5826084BD84B5816084BD85B58260CF
:100E500085BD85B5816085BD80916E008160809380
:100E60006E001092810080918100826080938100E9
:100E700080918100816080938100809180008160F9
:100E80008093800080919100826080939100809196
:100E900091008160809391008091900081608093A7
:100EA00090008091C10084608093C1008091C10056
:100EB00082608093C1008091C10081608093C100F5
:100EC0008091C30081608093C3008091C0008260E4
:100ED0008093C0008091C20081608093C2008091A5
:100EE0007A00846080937A0080917A008260809397
:100EF0007A0080917A00816080937A0080917A00F4
:100F0000806880937A0010925E01109247011092DF
:100F100046018091D70081608093D70080EA80935A
:100F2000D80089B5806189BD89B5826089BD09B461
:100F300000FEFDCF61E070E080E090E00E94AC0137
:100F40008091D8008F7C80618093D8008091E000F0
:100F5000807F8093E0008091E1008E7E8093E100AD
:100F60008DE08093E200559A209A8FEF9FEF909347
:100F70006C0180936B0185E10E94EE0084E10E9488
:100F8000EE0083E10E94EE0082E10E94EE0064EF39
:100F900071E080E090E00E94AC0185E291E00E9467
:100FA000AE038DE391E00E94AE0300E010E085E126
:100FB0000E9465015C0184E10E9465016C0183E18E
:100FC0000E9465017C0182E10E946501EC01B5018E
:100FD000BB0C880B990B0E94BB0389E00E943E0367
:100FE000B601DD0C880B990B0E94BB0389E00E94BF
:100FF0003E03B701FF0C880B990B0E94BB0389E0ED
:101000000E943E03BE01DD0F880B990B0E94BB03BB
:101010008DE391E00E94AE0365E070E080E090E037
:101020000E94AC010115110511F20E940000BFCF12
:10103000EFE5F1E01382128288EE93E0A0E0B0E0E9
:1010400084839583A683B78380E191E09183808335
:101050008FEF9FEF958784870895A1E21A2EAA1B30
:10106000BB1BFD010DC0AA1FBB1FEE1FFF1FA21758
:10107000B307E407F50720F0A21BB30BE40BF50B55
:10108000661F771F881F991F1A9469F760957095DE
:10109000809590959B01AC01BD01CF010895EE0FA5
:0E10A000FF1F0590F491E02D0994F894FFCF06
:1010AE00FFFFFFFF00E10000000000000000000055
:1010BE002803A3024E03430394035203700300C19B
:1010CE008081000000496E646578094D6964646C26
:1010DE00650952696E67095468756D62000D0A00E4
:00000001FF
